S1232000CE2142BDFFC72019CE21B9BDFFC75F7A002B260DCE21EDBDFFC78603B7002B2083
S1232020475FCE0010BD206F811B273CBD208CC1FF27D58603B7002BCE2177BDFFC7BDFF98
S1232040CD811B272381412710814E271181582712CE2208BDFFC720DFBD20A220DABD20E7
S1232060CD20D5BD20F820D0CE2275BDFFC73FBDFFCD811B270F810D2705A7000820F08654
S123208004A70020068604A700861B39CE0000CE001020050881042708A600A10F27F5C69B
S12320A0FF394F5F18CE0000CE00008C00102707E600183A0820F4188F05050505FD002884
S12320C0CE222CBDFFC7B60028BD212339CE0000A600B70029088C00102710A600B1002996
S12320E023030820F1B700290820EBCE2241BDFFC7B60029BD212339CE0000A600B7002A88
S1232100088C00102710A600B1002A24030820F1B7002A0820EBCE225BBDFFC7B6002ABDC0
S123212021233916444444448A30BDFFB817840F810A2C078A30BDFFB82006BB002CBDFF6B
S1232140B83957656C636F6D6520706C6561736520656E74657220796F7520757365726E1C
S1232160616D6520746F20616363657373206772616465733A2004507265737320274127E3
S123218020666F7220417665726167652C20274E2720666F72204D696E696D756D206F72AD
S12321A02027582720666F72204D6178696D756D2047726164653A20044552524F522121C3
S12321C02120557365726E616D657320646F206E6F74206D6174636820706C6561736520BC
S12321E074727920616761696E210D0D04546F6F206D616E7920696E636F7272656374200D
S1232200696E7075747321044E6F742074686520636F727265637420696E70757420284175
S12322202C4E2C582C455343290D0D0453747564656E74732041766572616765203D202478
S1232240044D696E696D756D2053747564656E74204772616465203D2024044D6178696DEF
S1232260756D2053747564656E74204772616465203D2024040D50726F6772616D2054650B
S11F2280726D696E617465642120486176652061206772656174206461792104EE
S113000023195F2107621A3C154C3152513F2833A2
S10C001F4772616465723031041A
S105002B033795
S9030000FC
