S1232000CE20B8BDFFC7CE20E7BDFFC7BDFFCD811B272D81212C0D8607BDFFB8CE2109BD31
S1232020FFC720E216CE212FBDFFC717BDFFB8CE214BBDFFC7BD204DCE2192BDFFC720C6C1
S1232040CE2192BDFFC7CE216DBDFFC73F17BD20B3B70000140030B60000BDFFB817B700C0
S1232060001500F0B60000810A271F810B2722810C2725810D2728810E272B810F272E146B
S12320800030B60000BDFFB820288641BDFFB820218642BDFFB8201A8643BDFFB8201386B2
S12320A044BDFFB8200C8645BDFFB820058646BDFFB839444444443957656C636F6D652026
S12320C0746F20746865204348415220746F2041534349492056616C756520436F6E7665B6
S12320E072746572210D04456E746572206120436861726163746572202845534320746F9B
S12321002045786974293A20044552524F52212121204E4F4E2D5052494E5441424C452094
S12321204348415220454E5445524544210D045468652063686172616374657220656E74CF
S123214065726564207761733A200454686520636861726163746572277320415343494901
S12321602076616C75652069733A20240450726F6772616D205465726D696E61746564207B
S117218048617665206120676F6F6420446179210D040D04F8
S9030000FC
