S1232000CE206CBDFFC7CE209BBDFFC7BDFFCD811B272D81212C0D8607BDFFB8CE20BDBD16
S1232020FFC720E216CE20E3BDFFC717BDFFB8CE20FFBDFFC7BD204DCE2147BDFFC720C6A6
S1232040CE2147BDFFC7CE2121BDFFC73F17444444448A30BDFFB817840F810A2C078A307A
S1232060BDFFB82006BB2149BDFFB83957656C636F6D6520746F2074686520434841522062
S1232080746F2041534349492056616C756520436F6E766572746572210D04456E746572AB
S12320A0206120436861726163746572202845534320746F2045786974293A20044552529E
S12320C04F52212121204E4F4E2D5052494E5441424C45204348415220454E5445524544BA
S12320E0210D045468652063686172616374657220656E7465726564207761733A20045498
S123210068652063686172616374657227732041534349492076616C75652069733A202447
S12321200450726F6772616D205465726D696E617465642C2048617665206120676F6F6478
S10D214020446179210D040D0437D9
S9030000FC
