S1232000CE2144BDFFC7CE2176BDFFC7CE0000BD203C811B2715CE0000BD2070C1FF27134A
S1232020CE0000BD20A6BD20C520DBCE21DDBDFFC72008CE21A9BDFFC720CB3F8C0005273A
S12320402EBDFFCD811B272781082716812F2304813923078607BDFFB820E1840FA7000816
S123206020DA8C000027D58607BDFFB80920CD395FA60081062E2C8106262A08A6008105B9
S12320802E218105261F08A60081052E168105261408A60081032E0B8103260908A600819D
S12320A0052302C6FF394F5F8C00052714FD00050505F3000505188FE600183A188F0820C3
S12320C0E7FD0005398620BDFFB8863DBDFFB88620BDFFB88624BDFFB8B60005BD2119B6E9
S12320E00006BD21198620BDFFB8863DBDFFB88620BDFFB88625BDFFB8FC0005CE00000581
S12321003624078631BDFFB820058630BDFFB8088C001032270220E7391644444444810AF0
S12321202C078A30BDFFB82006BB0007BDFFB817840F810A2C078A30BDFFB82006BB000760
S1232140BDFFB83957656C636F6D6520746F207468652042434420746F2042696E6172792D
S123216020436F6E766572746572202831362D42697429210D0431362D426974204465634E
S1232180696D616C2043616C63756C61746F722062793A20416E64726577204269737365A2
S12321A06C6C0D3A2020202004436F6E76657273696F6E204F564552464C4F572120496EC6
S12321C073657274206E756D6265722066726F6D2030202D2036353533352E0D040D5072ED
S12321E06F6772616D205465726D696E61746564212048617665206120677265617420649B
S107220061792104D7
S104000737BD
S9030000FC
