S1232000CE2054BDFFC7863ABDFFB8BDFFCD811B273381212C078607BDFFB820EE16862D97
S12320208D24174ABDFFB8862CBDFFB88620BDFFB817BDFFB8862B8D0D174CBDFFB8860D96
S1232040BDFFB820C13FBDFFB88631BDFFB8863DBDFFB83957656C636F6D652066726F6D39
S123206020416E647265772042697373656C6C20746F20746865204C6162384D6F640D49AC
S12320806620616E20696E707574206973206C657373207468616E207468652027212720E9
S12320A0415343494920434841522061207761726E696E672062656C6C2077696C6C2063C4
S12320C068696D65212E0D50726573732045534361706520746F20657869742C20616E794E
S11E20E0206F74686572206368617220746F205B646973706C61795D2E0D04D1
S9030000FC
