S1232000CE20FDBDFFC72019CE2239BDFFC75F2010CE2288BDFFC75F2007CE22C6BDFFC720
S12320205FCE211FBDFFC75FCE0100BD207F811B2746C1FF27D2CE0000CE0100BD20A9C17C
S1232040FF27CECE21DFBDFFC75FCE011EBD207F811B2724C1FF27B0CE0000CE011EBD2079
S1232060A9C1FF27ACBD20D7C1FF27AECE22FABDFFC7CE0100BDFFC7CE2330BDFFC73FBD78
S1232080FFCD810D270A811B2718A700085C20EF8604A700C1052306C11B2402200AC6FFAB
S12320A020068604A700861B39A60081042727812D231C812E271C812F2714813923148136
S12320C040230C815A230C81602304817A2304C6FF20030820D339CE0000CE010018CE01B9
S12320E01EC60020070818088104270CA60018E6001127F1C6FF2004C10426F83957656CF7
S1232100636F6D6520746F2074686520757365726E616D652063726561746F72210D0450A1
S12321206C6561736520656E746572206120757365726E616D6520362D32302063686172AF
S1232140616374657273206C6F6E67206C6F7765726361736520616E64206361706974615F
S12321606C206C65747465727320616363617461626C652C0D6E6F207370656369616C20E5
S12321806368617261637465727320616C6C6F7765642065786365707420706572696F64C7
S12321A0730D28707265737320656E74657220746F2066696E69736820757365726E616D49
S12321C065206F722065736361706520746F20717569742070726F6772616D293A2004502F
S12321E06C656173652072652D656E7465722074686520757365726E616D6520287072651F
S1232200737320656E74657220746F2066696E69736820757365726E616D65206F722065EC
S1232220736361706520746F20717569742070726F6772616D293A20044552524F5221213D
S12322402120557365726E616D6520697320746F6F206C6F6E67206F7220746F6F2073684D
S12322606F727421204D757374206265206265747765656E20302D323620636861726163C3
S123228074657273210D0D044552524F5221212120557365726E616D6520646F6573206E97
S12322A06F74206D6174636820637269746572696120706C65617365207472792061676135
S12322C0696E210D0D044552524F5221212120557365726E616D657320646F206E6F7420A0
S12322E06D6174636820706C656173652074727920616761696E210D0D04436F6E677261FB
S123230074756C6174696F6E7321205468652076616C69646174656420757365726E616D8B
S12323206520656E7465726564207761733A20040D50726F6772616D205465726D696E618F
S11A2340746564212048617665206120677265617420646179210449
S9030000FC
